{
  "contractName": "HomeAssistant",
  "abi": [
    {
      "constant": true,
      "inputs": [],
      "name": "count",
      "outputs": [
        {
          "internalType": "uint256",
          "name": "",
          "type": "uint256"
        }
      ],
      "payable": false,
      "stateMutability": "view",
      "type": "function"
    },
    {
      "constant": true,
      "inputs": [
        {
          "internalType": "uint256",
          "name": "",
          "type": "uint256"
        }
      ],
      "name": "entityState",
      "outputs": [
        {
          "internalType": "string",
          "name": "data",
          "type": "string"
        },
        {
          "internalType": "string",
          "name": "date",
          "type": "string"
        },
        {
          "internalType": "address payable",
          "name": "user",
          "type": "address"
        }
      ],
      "payable": false,
      "stateMutability": "view",
      "type": "function"
    },
    {
      "constant": false,
      "inputs": [
        {
          "internalType": "string",
          "name": "_data",
          "type": "string"
        },
        {
          "internalType": "string",
          "name": "_date",
          "type": "string"
        },
        {
          "internalType": "address payable",
          "name": "_user",
          "type": "address"
        }
      ],
      "name": "createHistory",
      "outputs": [],
      "payable": false,
      "stateMutability": "nonpayable",
      "type": "function"
    }
  ],
  "bytecode": "0x60806040526000805534801561001457600080fd5b50610562806100246000396000f3fe608060405234801561001057600080fd5b50600436106100415760003560e01c806306661abd14610046578063c6681d3c14610060578063db5a61a41461019a575b600080fd5b61004e6102ae565b60408051918252519081900360200190f35b6101986004803603606081101561007657600080fd5b81019060208101813564010000000081111561009157600080fd5b8201836020820111156100a357600080fd5b803590602001918460018302840111640100000000831117156100c557600080fd5b91908080601f016020809104026020016040519081016040528093929190818152602001838380828437600092019190915250929594936020810193503591505064010000000081111561011857600080fd5b82018360208201111561012a57600080fd5b8035906020019184600183028401116401000000008311171561014c57600080fd5b91908080601f016020809104026020016040519081016040528093929190818152602001838380828437600092019190915250929550505090356001600160a01b031691506102b49050565b005b6101b7600480360360208110156101b057600080fd5b5035610349565b604051808060200180602001846001600160a01b03166001600160a01b03168152602001838103835286818151815260200191508051906020019080838360005b838110156102105781810151838201526020016101f8565b50505050905090810190601f16801561023d5780820380516001836020036101000a031916815260200191505b50838103825285518152855160209182019187019080838360005b83811015610270578181015183820152602001610258565b50505050905090810190601f16801561029d5780820380516001836020036101000a031916815260200191505b509550505050505060405180910390f35b60005481565b6000805460019081018083556040805160608101825287815260208082018890526001600160a01b0387168284015292855292825290922081518051929391926103019284920190610492565b50602082810151805161031a9260018501920190610492565b5060409190910151600290910180546001600160a01b0319166001600160a01b03909216919091179055505050565b60016020818152600092835260409283902080548451600294821615610100026000190190911693909304601f81018390048302840183019094528383529283918301828280156103db5780601f106103b0576101008083540402835291602001916103db565b820191906000526020600020905b8154815290600101906020018083116103be57829003601f168201915b505050505090806001018054600181600116156101000203166002900480601f0160208091040260200160405190810160405280929190818152602001828054600181600116156101000203166002900480156104795780601f1061044e57610100808354040283529160200191610479565b820191906000526020600020905b81548152906001019060200180831161045c57829003601f168201915b505050600290930154919250506001600160a01b031683565b828054600181600116156101000203166002900490600052602060002090601f016020900481019282601f106104d357805160ff1916838001178555610500565b82800160010185558215610500579182015b828111156105005782518255916020019190600101906104e5565b5061050c929150610510565b5090565b61052a91905b8082111561050c5760008155600101610516565b9056fea265627a7a72315820f7fefda9d566878b72c8a050e13fa9e6aaff0467408996dc2ae22f8c529ce06964736f6c63430005100032",
  "source": "//SPDX-License-Identifier: MIT\r\npragma solidity >=0.4.22 <0.7.0;\r\n\r\ncontract HomeAssistant {\r\n    uint public count = 0; //state variable\r\n\r\n    struct EntityState {\r\n        string data;\r\n        string date;\r\n        address payable user;\r\n    }\r\n\r\n    mapping(uint => EntityState) public entityState;\r\n\r\n    function createHistory(\r\n        string memory _data,\r\n        string memory _date,\r\n        address payable _user\r\n    ) public {\r\n        count++;\r\n        entityState[count] = EntityState(_data, _date, _user);\r\n    }\r\n}\r\n",
  "sourcePath": "C:\\Users\\agusp\\OneDrive\\Documents\\kuliah\\Thesis\\program\\fix\\backup-smartcontract\\blockchain-addon_v2\\src\\contracts\\HomeAssistant.sol",
  "compiler": {
    "name": "solc",
    "version": "0.5.16+commit.9c3226ce.Emscripten.clang"
  },
  "schemaVersion": "3.4.13",
  "updatedAt": "2023-06-22T06:39:53.879Z",
  "networkType": "ethereum",
  "devdoc": {
    "methods": {}
  },
  "userdoc": {
    "methods": {}
  }
}